:100000000C9495050C94BD050C94BD050C9420161C
:100010000C94C6160C94A2160C94BD050C94BD0548
:100020000C94BD050C94BD050C94BD050C94BD0548
:100030000C94BD050C94BD050C94BD050C94BD0538
:100040000C945F140C94BD050C94CF140C94A9145B
:100050000C94BD050C94BD050C94BD050C94BD0518
:100060000C9401150C94BD05000103070F1F3F7F81
:100070000080C0E0F0F8FCFE00C2010001001100A9
:1000800011000C0000E100000A00250025002100FD
:10009000009600001900390039003600127A00007D
:1000A0001F004600460044008070000022004D0002
:1000B0004D004A00004B00003600750075007200CC
:1000C000403800004A009C009C00990080250000F8
:1000D0007200EC00EC00E900C0120000E900DA0157
:1000E000DA01D70160090000D701B603B603B303F4
:1000F000B0040000B3036E076E076B0758020000E0
:100100006E07DC0EDC0ED80E2C010000DC0EC11DCB
:10011000C11DBE1DDB40A4A62EAF2000A1C8D30088
:10012000408DAED580A800006000000000000000F7
:1001300000000000000000E00000000000000000DF
:10014000000000000001E0000000000000000000CE
:100150000000000001F000000000000000000000AE
:1001600000000003F000000000000000000000009C
:10017000000007F000000000000000000000000088
:100180000007F80000000000000000000000000070
:100190000FF800000003C0007E000001E0007F0FA8
:1001A000F800000003C000FE000001E000FFEFF8CF
:1001B00000000003C000FE000001E000FFFFF800A7
:1001C000000003C000F00000000F007FFE7FC000B1
:1001D0000003C000F00000000F003FFE7FF83FF179
:1001E000FBCFFCFEF3BC3DEFE01FFE7FFF7FFBFF7C
:1001F000DFFEFEFFBC3DEFE01FC6FFFF7FFBFFDF22
:10020000FEFEFFBC3DEFE00FE3C7FE787BC3DE1EC2
:10021000F0FFBC3DEF0007FF87FC787BC3DE1EF0DC
:10022000F83C3DEF0001FFFFF0007BC3C01EF0F083
:100230003C3DEF0001F37FE03FFBC3CFFEF0F03C1D
:100240003DEF0003E33F807FFBC3DFFEF0F03C3D6A
:10025000EF0007E73C00787BC3DE1EF0F03C3DEF8B
:100260000007FFBE00787BC3DE1EF0F03C3DEF00D0
:1002700007FFFE00787BC3DE1EF0F03C3DEF000F71
:10028000FFFE007FFBFFDFFEF0F03FFDEFE00FFF22
:10029000FF007FFBFFDFFEF0F03FFDEFE00FF9FF17
:1002A000003E79F9CF9EF0F01F3DE7E01FF1FF001F
:1002B00000000000000000000000001F80FF007F21
:1002C000FFFFFFFFFFFFFFFFFFE01C007F007FFF3E
:1002D000FFFFFEB46D888D18E000001F007FFFFF58
:1002E000FFFE95AD7DB577E000000F007FFFFFFFBB
:1002F000FEA5AD9D8D19E0000006007FFFFFFFFE0B
:10030000B5ADEDB57EE0000000000001800000000A
:10031000000000000000038000000000000000005A
:100320000007C000000000000000000007C000003F
:10033000000000000000000FC000000000000000EE
:1003400000001FE00000000000000000001FE000AF
:1003500000000000000000003FE00000000000007E
:100360000000003FF00000000000000000007FF0EF
:10037000000000000000001FF87FF00000000000F7
:1003800000003FFE7FF0000000000000003FFF7F04
:10039000F0000000000000001FFFFBE00000000074
:1003A0000000000FFFF9FFC00000000000000FFF79
:1003B000F9FFF800000000000007FFF1FFFF000058
:1003C0000000000003FC73FFFF800000000000013C
:1003D000FE3FFFFF80000000000000FF1E0FFF0037
:1003E0000000000000007FFE1FFC00000000000075
:1003F000003FFFFFF8000000000000000FDFFFE0FB
:10040000000000000000001F19FFC00000000000F5
:1004100000003F3CFF00000000000000007E7CF870
:1004200000000000000000007FFE7C0000000000D3
:10043000000000FFFFFC0000000000000000FFFFC4
:10044000FE0000000000000000FFFFFE00000000B2
:1004500000000001FFEFFE0000000000000001FFAF
:10046000CFFE0000000000000003FF07FE000000B8
:100470000000000003FC07FE000000000000000375
:10048000F003FE00000000000000018000FE0000FC
:1004900000000000000000007E00000000000000DE
:1004A0000000003E000000000000000000000C0002
:1004B0000000000000078000FC000003C0000000F6
:1004C000078001FC000003C0000000078001FC0061
:1004D0000003C0000000078001E00000001E0000D3
:1004E00000078001E00000001E007FE3F79FF9FD98
:1004F000E7787BDFC0FFF7FFBFFDFDFF787BDFC044
:10050000FFF7FFBFFDFDFF787BDFC0F0F787BC3D45
:10051000E1FF787BDE00F0F787BC3DE1F0787BDE21
:100520000000F787803DE1E0787BDE007FF7879F62
:10053000FDE1E0787BDE00FFF787BFFDE1E0787B3F
:10054000DE00F0F787BC3DE1E0787BDE00F0F78766
:10055000BC3DE1E0787BDE00F0F787BC3DE1E07870
:100560007BDE00FFF7FFBFFDE1E07FFBDFC0FFF7B1
:10057000FFBFFDE1E07FFBDFC07CF3F39F3DE1E0E7
:100580003E7BCFC00000000000000000000000FF24
:10059000FFFFFFFFFFFFFFFFFFC0FFFFFFFFFD6843
:1005A000DB111A31C0FFFFFFFFFD2B5AFB6AEFC0C2
:1005B000FFFFFFFFFD4B5B3B1A33C0FFFFFFFFFD5B
:1005C0006B5BDB6AFDC02200FF21000000000024FD
:1005D0000027002A000000000800020100000304B8
:1005E00007000000000000000000000000003E5B6B
:1005F0004F5B3E3E6B4F6B3E1C3E7C3E1C183C7E70
:100600003C181C577D571C1C5E7F5E1C00183C1854
:1006100000FFE7C3E7FF0018241800FFE7DBE7FF50
:1006200030483A060E2629792926407F05050740DD
:100630007F05253F5A3CE73C5A7F3E1C1C08081C9E
:100640001C3E7F14227F22145F5F005F5F06097FDC
:10065000017F006689956A606060606094A2FFA275
:100660009408047E040810207E201008082A1C0824
:10067000081C2A08081E101010100C1E0C1E0C302E
:10068000383E3830060E3E0E060000000000000026
:100690005F00000007000700147F147F14242A7FE6
:1006A0002A122313086462364956205000080703B3
:1006B00000001C2241000041221C002A1C7F1C2A31
:1006C00008083E0808008070300008080808080084
:1006D0000060600020100804023E5149453E00427F
:1006E0007F400072494949462141494D331814124F
:1006F0007F1027454545393C4A4949314121110977
:10070000073649494936464949291E000014000068
:100710000040340000000814224114141414140082
:100720004122140802015909063E415D594E7C12CE
:1007300011127C7F494949363E414141227F414166
:10074000413E7F494949417F090909013E414151E3
:10075000737F0808087F00417F41002040413F012E
:100760007F081422417F404040407F021C027F7F6F
:100770000408107F3E4141413E7F090909063E4180
:1007800051215E7F09192946264949493203017FD3
:1007900001033F4040403F1F2040201F3F40384062
:1007A0003F631408146303047804036159494D43FB
:1007B000007F4141410204081020004141417F0473
:1007C000020102044040404040000307080020545A
:1007D0005478407F284444383844444428384444BA
:1007E000287F385454541800087E090218A4A49C89
:1007F000787F0804047800447D40002040403D009C
:100800007F1028440000417F40007C047804787CFD
:10081000080404783844444438FC18242418182464
:100820002418FC7C08040408485454542404043F4D
:1008300044243C4040207C1C2040201C3C40304054
:100840003C44281028444C9090907C4464544C4480
:100850000008364100000077000000413608000221
:10086000010204023C2623263C1EA1A161123A404B
:1008700040207A38545455592155557941225454C1
:100880007842215554784020545579400C1E5272BC
:100890001239555555593954545459395554545899
:1008A0000000457C410002457D420001457C407DC1
:1008B0001211127DF0282528F07C54554500205453
:1008C000547C547C0A097F4932494949323A4444AC
:1008D000443A324A4848303A4141217A3A4240202B
:1008E00078009DA0A07D3D4242423D3D4040403DBC
:1008F0003C24FF2424487E4943662B2FFC2F2BFFEA
:100900000929F620C0887E0903205454794100004B
:10091000447D413048484A32384040227A007A0AC1
:100920000A727D0D19317D2629292F28262929298A
:100930002630484D402038080808080808080838BC
:100940002F10C8ACBA2F102834FA00007B00000822
:10095000142A142222142A14085500550055AA55A9
:10096000AA55AAFF55FF55FF000000FF0010101008
:10097000FF00141414FF001010FF00FF1010F010FF
:10098000F0141414FC001414F700FF0000FF00FF23
:100990001414F404FC141417101F10101F101F144B
:1009A00014141F00101010F0000000001F10101091
:1009B000101F10101010F010000000FF1010101089
:1009C0001010101010FF10000000FF140000FF00B6
:1009D000FF00001F10170000FC04F4141417101778
:1009E0001414F404F40000FF00F714141414141485
:1009F00014F700F7141414171410101F101F1414F8
:100A000014F4141010F010F000001F101F0000006C
:100A10001F14000000FC140000F010F01010FF1074
:100A2000FF141414FF141010101F00000000F01029
:100A3000FFFFFFFFFFF0F0F0F0F0FFFFFF0000000E
:100A40000000FFFF0F0F0F0F0F3844443844FC4ADB
:100A50004A4A347E02020606027E027E026355493D
:100A600041633844443C04407E201E2006027E023E
:100A70000299A5E7A5991C2A492A1C4C7201724CBF
:100A8000304A4D4D303048784830BC625A463D3E81
:100A9000494949007E0101017E2A2A2A2A2A444422
:100AA0005F444440514A444040444A51400000FFA2
:100AB0000103E080FF000008086B6B083612362443
:100AC00036060F090F06000018180000001010006D
:100AD0003040FF0101001F01011E00191D17120007
:100AE0003C3C3C3C000000000000000000230026CD
:100AF00000290000000000250028002B0004040449
:100B000004040404040202020202020303030303B6
:100B10000301020408102040800102040810200193
:100B2000020408102000EA163F1D11241FBECFEF5B
:100B3000D8E0DEBFCDBF11E0A0E0B1E0E6E3FEE328
:100B400002C005900D92A437B107D9F723E0A4E7BE
:100B5000B1E001C01D92AB39B207E1F715E0C4E97D
:100B6000D5E004C02197FE010E94D71DC339D107EB
:100B7000C9F70E9479180C940E1F0C940000089578
:100B80000895FC016370668B84819581268137818D
:100B9000613039F0633029F091878087338722876D
:100BA0000895318720879387828708952F923F92F7
:100BB0004F925F926F927F928F929F92AF92BF926D
:100BC000CF92DF92EF92FF920F931F93CF93DF9319
:100BD000CDB7DEB76A970FB6F894DEBF0FBECDBFB4
:100BE0009A8F898F7A8369834A01D22E18870F835F
:100BF0003701BC2CDC0159962D913C915A97211557
:100C0000310509F015C118968D919C9119976817B7
:100C100079070CF0D7C11A968D919C914817590706
:100C20000CF0D0C14C2C512CB6E0CB9E600D711D48
:100C300011247C876B87161617060CF0C3C1EA2DAA
:100C4000F0E0FA87E98793E0EE0FFF1F9A95E1F74E
:100C5000F88BEF87CF01840F951F181619060CF03B
:100C6000B1C1A98DBA8D58968C91811104C0BFEA8B
:100C7000BD1508F4D394A98DBA8DED91FC9111970F
:100C80000284F385E02DCD010995B5E0DB9EC0011E
:100C90001124E981FA81FC83EB83312C212C9C0106
:100CA00027513A4F388F2F8B4A2D50E05E8B4D8B5A
:100CB000EF89F88DE20DF31D44919E828D82D12C37
:100CC000C12C69817A81620D731D7A8B698B842FA7
:100CD00090E09C8B8B8BE98DFA8DA081B18140FFD8
:100CE00082C0F1E0BF126FC0AF126DC01C96ED91D3
:100CF000FC912F813885A4014C0D5D1D69897A898D
:100D0000898D9A8D0995EB89FC89F595E7954E2F8C
:100D10005FEFC51AD50A6D817E818D899E89680F26
:100D2000791F7E836D8398E0C916D10481F6AFEFF9
:100D30002A1A3A0AEB81FC81E40DF51DFC83EB8352
:100D4000F5E02F16310409F0B3CF2F813885261531
:100D50003705B9F0A98DBA8DED91FC91B1E0BB12C8
:100D600057C0AB1255C069817A816B5F7F4F008895
:100D7000F189E02D830128E030E0A401898D9A8D6E
:100D80000995A98DBA8DED91FC9111970688F78987
:100D9000E02DCD016A960FB6F894DEBF0FBECDBF31
:100DA000DF91CF911F910F91FF90EF90DF90CF9047
:100DB000BF90AF909F908F907F906F905F904F907B
:100DC0003F902F9009941E96ED91FC91EF80F8844E
:100DD00009851A8592014D815E816B817C81898DA7
:100DE0009A8D099590CF2F8138852615370509F4FE
:100DF0008ACF31E0B31207C0A31205C01C96ED9153
:100E0000FC91930178CF1E96ED91FC917301E0CF98
:100E10006B857C85641975090684F785E02D73015F
:100E20000F8518899201A401898D9A8D0995A9CF02
:100E3000F90134969491329745915491D91AB7E0BB
:100E4000DB9E400D511D1124F901259134913C8BFD
:100E50002B8BFA0125903490FA01329674903196DA
:100E60003491398B329664903196449041E04C1520
:100E700018F04A1508F07FC0662D062C000C770B81
:100E80007C836B83842D042C000C990B9E838D83B3
:100E9000A98DBA8DED91FC9111970284F385E02D17
:100EA000CD010995512CD12CC12CEA2DF0E0FA8707
:100EB000E9872B2D30E03C872B87A401440D511D81
:100EC00047FC5A95588F4F8B69817A81660D711D49
:100ED00067FC7A957E876D877989C71608F051CFB0
:100EE0002C2D30E04D815E81420F531FA985BA85BC
:100EF0004A9FC0014B9F900D5A9F900D1124FC01F9
:100F0000E80DF91DF88BEF87852D612C4F89588DE1
:100F1000420F531F5E8B4D8B671408F050C0442462
:100F20004394480E877041F4C1010196EB89FC8916
:100F3000E20DF31DD4901C01D7FE19C0A98DBA8D06
:100F4000ED91FC91662D70E0B1E0BB1219C0AB12BF
:100F500017C02D853E85620F731F0484F585E02D33
:100F60002F8138854D895E89898D9A8D0995DD0C93
:100F70006394842DD1CF1E821D821C821B8288CF58
:100F80004B815C81640F751FAB85BC856A9FC00176
:100F90006B9F900D7A9F900D112469817A81680F63
:100FA000791F0684F785E02DEF80F88409851A857E
:100FB0009D014F855889898D9A8D0995D8CF570CF9
:100FC000C3948ACF6A960FB6F894DEBF0FBECDBF2A
:100FD000DF91CF911F910F91FF90EF90DF90CF9015
:100FE000BF90AF909F908F907F906F905F904F9049
:100FF0003F902F9008958F929F92AF92CF92EF9251
:10100000FF920F931F93CF93DF93EC01262F898DCF
:101010009A8D009709F051C06A30D1F41D861C8664
:101020008D8948E0849F900111248E859F85820FD1
:10103000931F9F878E8781E090E0DF91CF911F9172
:101040000F91FF90EF90CF90AF909F908F90089569
:101050006D3089F3CC88AD888F898823C1F08C8569
:101060009D8536E0C39E800D911D112448855985CC
:101070004817590764F44E855F851D861C8638E045
:10108000A39EC0011124840F951F9F878E87EA8835
:10109000FB88088919894E855F856C857D85CE0121
:1010A0000E94D6052C898C859D8546E0249F800D65
:1010B000911D11249D878C87BECF6A3069F41D86EF
:1010C0001C86FC013896E4912D898E859F85E29FD0
:1010D000800D911D1124ADCF6D3009F4ACCFFC0112
:1010E00034963491631708F4A6CF3296E491E6174C
:1010F00008F4A1CFFC01329685909490462F431BB3
:10110000342F47E0349F800C911C1124F401329657
:1011100034913196E4913323A9F1EE2399F1CC88EF
:10112000F4013596E491AD884F89442301F10E2EE8
:10113000000CFF0BE30FF11DCE9EA001CF9E500DC2
:1011400011246C857D85460F571F68857985641746
:1011500075076CF44E855F851D861C86FC013896EC
:10116000E491AE9E400D511D11245F874E87EA88A1
:10117000FB88088919894E855F856C857D85CE0140
:101180000E94D605F4013496E4912C898C859D85C6
:10119000E29F800D911D11248DCF6F927F928F92CF
:1011A0009F92AF92BF92CF92DF92EF92FF920F93F6
:1011B0001F93CF93DF93EC016B015A013901480172
:1011C000E881F9810284F385E02D0995E881F981B0
:1011D0000288F389E02D87019301A501B601CE01B4
:1011E0000995A501480D591D41505109E881F98122
:1011F0000288F389E02D9301B601CE010995E881BB
:10120000F9810088F189E02D9401A501B601CE0194
:101210000995C60CD71CB60161507109E881F981A6
:101220000088F189E02D9401A501CE010995E8819E
:10123000F9810688F789E02DCE01DF91CF911F91CA
:101240000F91FF90EF90DF90CF90BF90AF909F9065
:101250008F907F906F9009946F927F928F929F9260
:10126000AF92BF92CF92DF92EF92FF920F931F93B4
:10127000CF93DF935C01EB016A01490138018701DB
:10128000DC01ED91FC916217730719F56416750680
:101290002CF0962D872D3A01C92ED82E96012619AD
:1012A00037092F5F3F4F048CF58DE02DA301BE0160
:1012B000C5010995DF91CF911F910F91FF90EF909C
:1012C000DF90CF90BF90AF909F908F907F906F9066
:1012D00008954615570591F42617370724F0892DF0
:1012E0004B01C22FD82F9E01281939092F5F3F4F7C
:1012F000068CF78DE02DA601B401DACF0284F385C8
:10130000E02D0995D501ED91FC910488F589E02D3A
:1013100083019401A601BE01C5010995D501ED9196
:10132000FC910688F789E02DC501DF91CF911F91CF
:101330000F91FF90EF90DF90CF90BF90AF909F9074
:101340008F907F906F900994EF92FF920F931F936D
:10135000DC011A960D911C911B9718962D913C91CA
:101360001997ED91FC9100A0F1A1E02D7B0150E0D7
:1013700040E070E060E009951F910F91FF90EF90C1
:1013800008954F925F926F927F928F929F92AF9249
:10139000BF92CF92DF92EF92FF920F931F93CF9362
:1013A000DF936C012B015A0139014801DC01ED91F9
:1013B000FC910284F385E02D0995E201640C751C13
:1013C000D601ED91FC91C615D7055CF40088F18932
:1013D000E02D87019401A501BE01C6010995219662
:1013E000EFCF0688F789E02DC601DF91CF911F91DD
:1013F0000F91FF90EF90DF90CF90BF90AF909F90B4
:101400008F907F906F905F904F9009948F929F92F2
:10141000AF92BF92CF92DF92EF92FF920F931F9302
:10142000CF93DF93EC015B014A016901E881F98107
:101430000284F385E02D099595012C0D3D1D215069
:101440003109E881F9810488F589E02D780184016A
:10145000A401B501CE010995E881F9810688F789D3
:10146000E02DCE01DF91CF911F910F91FF90EF9072
:10147000DF90CF90BF90AF909F908F9009948F9204
:101480009F92AF92BF92CF92DF92EF92FF920F9313
:101490001F93CF93DF93EC015B014A01690178014F
:1014A000E881F9810284F385E02D0995C80CD91CE7
:1014B000860101501109E881F9810488F589E02D40
:1014C0009501A401B501CE010995E881F98106884D
:1014D000F789E02DCE01DF91CF911F910F91FF9001
:1014E000EF90DF90CF90BF90AF909F908F90099436
:1014F000EF92FF920F931F93DC01ED91FC9100A0FE
:10150000F1A1E02D09951F910F91FF90EF900895A3
:101510000F931F93DC01ED91FC91068CF78DE02D6C
:1015200009951F910F9108950F931F93DC01ED9181
:10153000FC91048CF58DE02D09951F910F91089574
:10154000DC01ED91FC910084F185E02D09943F923E
:101550004F925F926F927F928F929F92AF92BF92C3
:10156000CF92DF92EF92FF920F931F93CF93DF936F
:101570005C017B014A016901390187E0680E711C39
:1015800093E0759467949A95E1F72B01400E511EF4
:1015900010E000E0312CD0E0C0E0CE018770992748
:1015A000330C892B59F4FE0183E0F595E7958A9574
:1015B000E1F7E00FF11FE80DF91D349037FE0AC086
:1015C00021E030E0A701B5016C0F7D1F85E293E0BB
:1015D0000E94A00A2196CC16DD06F9F68FEFE81AD4
:1015E000F80A060D171DE414F504A9F6DF91CF9152
:1015F0001F910F91FF90EF90DF90CF90BF90AF9031
:101600009F908F907F906F905F904F903F90089544
:101610002F923F924F925F926F927F928F929F9202
:10162000AF92BF92CF92DF92EF92FF920F931F93F0
:10163000CF93DF9300D000D000D0CDB7DEB73C0110
:101640006A013E832D83FC82EB825801A41AB50AFD
:10165000B7FE03C0B194A194B1088D809E80861A14
:10166000970A97FE03C09194819491088A149B0471
:101670005CF0902F812F0D811E819D838E839C2D88
:101680008D2D6B01692F782F0C151D055CF09D8148
:101690008E817E836D83692F782F902F812F860115
:1016A000C92ED82E1601201A310A2B012D813E8118
:1016B000421A530A57FE03C05194419451087101D4
:1016C00037FE03C03FEFE31AF30AF594E7948D81E8
:1016D0009E81861797075CF5A1E0B0E0BA83A983E5
:1016E000C016D1064CF1D301ED91FC910484F5852F
:1016F000E02D2B813C81A8016D817E818A149B04A1
:101700001CF04D815E81B801C3010995E418F5080C
:10171000F7FE0AC02D813E8189819A81280F391FE9
:101720003E832D83E20CF31C0F5F1F4FD9CF2FEFA9
:101730003FEF3A832983D4CF26960FB6F894DEBFC5
:101740000FBECDBFDF91CF911F910F91FF90EF9012
:10175000DF90CF90BF90AF909F908F907F906F90D1
:101760005F904F903F902F90089590E0FC01EB52D6
:10177000FA4F2491FC01EF5EF44F3491FC01E350E9
:10178000F54FE491EE23C9F0222339F0233001F123
:10179000A8F4213019F1223029F1F0E0EE0FFF1FFB
:1017A000ED50F54FA591B4918FB7F894EC9161117C
:1017B00026C030953E233C938FBF08952730A9F073
:1017C0002830C9F0243049F7809180008F7D03C014
:1017D000809180008F7780938000DFCF84B58F77F2
:1017E00084BDDBCF84B58F7DFBCF8091B0008F7738
:1017F0008093B000D2CF8091B0008F7DF9CF3E2B87
:10180000DACFCF93DF9390E0FC01EF5EF44F2491A9
:101810008350954FFC0184918823D1F090E0880F8C
:10182000991FFC01E553FA4FA591B491FC01ED50CD
:10183000F54FC591D49161110EC09FB7F8948C916A
:10184000E22FE0958E238C932881E223E8839FBFCB
:10185000DF91CF9108958FB7F894EC91E22BEC9340
:101860008FBFF6CF3FB7F8948091740290917502C4
:10187000A0917602B091770226B5A89B05C02F3FB4
:1018800019F00196A11DB11D3FBFBA2FA92F982FA6
:101890008827BC01CD01620F711D811D911D42E0A1
:1018A000660F771F881F991F4A95D1F708958F9269
:1018B0009F92AF92BF92CF92DF92EF92FF924B0135
:1018C0005C010E94320C6B017C010E94320C6C198D
:1018D0007D098E099F09683E734081059105A8F333
:1018E00021E0821A9108A108B10888EEC80E83E0B1
:1018F000D81EE11CF11C81149104A104B10429F744
:10190000FF90EF90DF90CF90BF90AF909F908F901F
:10191000089508950895AF92BF92CF92DF92EF920B
:10192000FF920F931F93CF93DF936C017B018B0189
:10193000040F151FEB015E01AE18BF08C017D107D9
:1019400059F06991D601ED91FC910190F081E02D63
:10195000C6010995892B79F7C501DF91CF911F91B8
:101960000F91FF90EF90DF90CF90BF90AF900895D0
:10197000FC01538D448D252F30E0842F90E0821B95
:10198000930B541710F0CF96089501970895FC011A
:10199000918D828D981761F0A28DAE0FBF2FB11D72
:1019A0005D968C91928D9F5F9F73928F90E00895CA
:1019B0008FEF9FEF0895FC01918D828D981731F084
:1019C000828DE80FF11D858D90E008958FEF9FEFD8
:1019D0000895FC01918D228D892F90E0805C9F4FAE
:1019E000821B91098F73992708958CE792E00E94DA
:1019F000E90C21E0892B09F420E0822F089580E092
:101A000090E0892B29F00E94F50C81110C940000C4
:101A10000895FC01A48DA80FB92FB11DA35ABF4F83
:101A20002C91848D90E001968F739927848FA689DD
:101A3000B7892C93A089B1898C91837080648C9331
:101A4000938D848D981306C00288F389E02D8081E0
:101A50008F7D80830895EF92FF920F931F93CF9312
:101A6000DF93EC0181E0888F9B8D8C8D98131AC0D9
:101A7000E889F989808185FF15C09FB7F894EE89C0
:101A8000FF896083E889F98980818370806480831D
:101A90009FBF81E090E0DF91CF911F910F91FF9068
:101AA000EF900895F62E0B8D10E00F5F1F4F0F7310
:101AB0001127E02E8C8D8E110CC00FB607FCFACFCB
:101AC000E889F989808185FFF5CFCE010E94090D53
:101AD000F1CFEB8DEC0FFD2FF11DE35AFF4FF0829C
:101AE0009FB7F8940B8FEA89FB8980818062CFCF02
:101AF000CF93DF93EC01888D8823B9F0AA89BB8945
:101B0000E889F9898C9185FD03C0808186FD0DC02F
:101B10000FB607FCF7CF8C9185FFF2CF808185FF50
:101B2000EDCFCE010E94090DE9CFDF91CF9108954D
:101B3000EF92FF920F931F93CF93DF93EC01EC8012
:101B4000FD806E157F050CF070C057FF04C0240F98
:101B5000351F50E040E08E819F81FA01E20FF31FB4
:101B60008E179F071CF49C01241B350B12161306BD
:101B70000CF05BC0922F842F8695869586958E9D5E
:101B8000D0018F9DB00D11246A0F7B1FAF8DB8A1BE
:101B9000A60FB71F477049F188E0841B482F682FB4
:101BA00070E0FB01E059FF4FE491281708F063C093
:101BB000621B71092FEF30E002C0359527956A95B9
:101BC000E2F7E2230130110539F0B0F102301105DE
:101BD00061F58C91E82702C08C91E82BEC93941767
:101BE00020F12C813D81A20FB31FE92FE41BE830C7
:101BF00078F00230110521F58E2F9C9190959C93E1
:101C00002C813D81A20FB31F88508830B0F7E77058
:101C1000EE2359F0F0E0E859FF4FE491013011054F
:101C2000F9F010F10230110519F1DF91CF911F91F8
:101C30000F91FF90EF900895E0958C91E823CECF1F
:101C400081E00115110509F480E081959E2F8C93A8
:101C50002C813D81A20FB31F98509830C0F7D7CF89
:101C60008C91E82BEC93E1CFE0958C91E823FACFAF
:101C70008C91E827F7CF0130110509F4ADCFE0F2E0
:101C80000230110509F4A5CFAE0DBF1DAECF0F93E5
:101C90001F93CF93DF9377FF04C0260F371F70E0A9
:101CA00060E0DC011496CD91DC91FB01E20FF31FA3
:101CB000CE17DF071CF49E01261B370B12161306E6
:101CC0004CF5FA0157FD3796A3E0F595E795AA95EF
:101CD000E1F7EC9FD001ED9FB00DFC9FB00D1124FA
:101CE0006A0F7B1FDC015F96ED91FC91E60FF71FF9
:101CF0004770552781E090E001C0880F4A95EAF7C8
:101D0000482F0130110559F0A8F02E0F3F1F023067
:101D10001105E1F0DF91CF911F910F9108952E0FE2
:101D20003F1FE217F307B1F38191DF011197842B75
:101D30008C93F7CF80952E0F3F1FE217F30751F3D7
:101D40009191DF01119798239C93F7CFE217F30746
:101D500009F38191DF01119784278C93F7CF0F93BB
:101D60001F93FA01DC0156964C9156974230E9F0E8
:101D70004330A1F1413061F514964D915C91DA0147
:101D8000AE1BBF0BFD01E21BF30B77FD0BC0DC01AB
:101D900016964D915C916417750724F4AB01BF0151
:101DA0000E94470E1F910F91089514964D915C91DA
:101DB000DA01A61BB70BBD0161507109DC01169653
:101DC0004D915C91DA01AE1BBF0BFD01E21BF30BE1
:101DD00077FDE8CFAF010E94980DE4CF16964D91A4
:101DE0005C91DA01A61BB70BBD0161507109CDCF23
:101DF0000F931F93FA01DC0156964C91569742308F
:101E0000A9F0433091F1413019F514964D915C9150
:101E1000DA01AE1BBF0BFD013197F7FD04C0AB012A
:101E2000BF010E94980D1F910F91089514964D9136
:101E30005C91DA01A61BB70BBD01DC0116964D9132
:101E40005C91DA01AE1BBF0BFD013197621B730B76
:101E5000F7FDE9CFDC0116964D915C91E417F5078B
:101E600014F7AF010E94470EDECF16964D915C919C
:101E7000DA01A61BB70BBD01621B730BCECFFC01B1
:101E800077FD64C080859185681779070CF05EC086
:101E900057FD5CC082859385481759070CF056C0E2
:101EA00086898230B1F0833029F1813041F4848118
:101EB0009581841B950BAB01BC01615071092130E8
:101EC000310509F108F443C02230310509F463C03B
:101ED000089584819581DC01A61BB70BBD0161507B
:101EE000710986819781DC01A41BB50BAD014150BE
:101EF0005109E5CF86819781861B970BBA01AC010A
:101F000041505109DCCFCA0157FD0796A3E09595D2
:101F10008795AA95E1F7A481B5818A9F90018B9F4F
:101F2000300D9A9F300D1124620F731F078CF0A1A2
:101F3000E02DE60FF71F4770552721E030E001C084
:101F4000220F4A95EAF78081822B80830895CA0187
:101F500057FD079633E0959587953A95E1F7A4816B
:101F6000B5818A9F90018B9F300D9A9F300D11246F
:101F7000620F731F078CF0A1E02DE60FF71F47706B
:101F8000552781E090E001C0880F4A95EAF78095D7
:101F900090818923DACFCA0157FD079623E09595F2
:101FA00087952A95E1F7A481B5818A9F90018B9F3F
:101FB000300D9A9F300D1124620F731F078CF0A112
:101FC000E02DE60FF71F4770552721E030E001C0F4
:101FD000220F4A95EAF780818227B7CF08958EBDF8
:101FE00000000DB407FEFDCF8EB508958CBD9DBDDC
:101FF0000895089520911A02260F3327331F2132A6
:102000003105ECF420913E02FC0190E080E02430A8
:1020100069F082E00895A0911A022191AC01465026
:102020005E4FA40FB52FB11D2C930196861798F320
:1020300080911A02680F60931A0280E0089581E08F
:10204000089510923E0281E08093400210923F0278
:1020500061E082E10E94B50B61E083E10E94B50B73
:10206000E9EBF0E080818E7F808380818D7F8083AB
:1020700088E48093B80085E48093BC000895CF93F2
:10208000DF9391E09093F9018823B9F0C091B800F3
:10209000D091BA008091BC008A7B8093BC0060E044
:1020A00082E10E94B50B60E083E10E94B50B0E94C3
:1020B0002110D093BA00C093B800DF91CF9108955A
:1020C000E0916E0280916D02E81730F4F0E0EC527E
:1020D000FE4F808190E008958FEF9FEF08959091DB
:1020E0006E0280916D022FEF3FEF981748F4E92FB1
:1020F000F0E0EC52FE4F208130E09F5F90936E0243
:10210000C901089580916D0290916E02891B990B0F
:102110000895CF92DF92EF92FF920F931F93CF9388
:10212000DF937C01CB018A0120917B02222389F07D
:10213000EB016B01C40ED51ECC15DD0569F069916C
:10214000D701ED91FC910190F081E02DC701099537
:10215000F3CF642F0E94FA0FC801DF91CF911F9136
:102160000F91FF90EF90DF90CF900895CF93DF9382
:102170001F92CDB7DEB7698320917B022223F9F04D
:1021800020917802203258F021E030E0FC013383C6
:10219000228390E080E00F90DF91CF9108958091AD
:1021A0007902E82FF0E0EC54FE4F998190838F5F25
:1021B000809379028093780281E090E0ECCF61E037
:1021C000CE0101960E94FA0FF7CFCF92DF92EF92E5
:1021D000FF920F931F93CF93DF93D091780281E00A
:1021E000D13208F09CC0C0917A020E94320C6B017F
:1021F0007C0180913E0281116CC082E080933E029E
:1022000081E0809340028FEF80933D021092620242
:10221000D0936102A4EBB1E0E1E4F2E080E0D813F6
:102220008DC01092630280916302CC0FC82BC093C3
:10223000630280913F02813009F084C010923F0216
:102240000E94320C6B017C01809163028093BB0081
:102250008091F5019091F601A091F701B091F801FC
:10226000892B8A2B8B2BA1F00E94320C0091F50157
:102270001091F6012091F7013091F8016C197D0958
:102280008E099F09061717072807390708F442C067
:102290008091BC0083FDD8CF85EC8093BC000E9468
:1022A000320C6B017C0180913E02823009F44CC0FB
:1022B00080913D028F3F09F469C080913D028032D8
:1022C00009F466C080913D02803309F463C084E064
:1022D00026C08091F5019091F601A091F701B0918F
:1022E000F801892B8A2B8B2B09F483CF0E94320CA7
:1022F0000091F5011091F6012091F7013091F8015C
:102300006C197D098E099F090617170728073907D9
:1023100008F06FCF8091F4010E943F1085E0109289
:1023200079021092780210927B02DF91CF911F9177
:102330000F91FF90EF90DF90CF9008959D91919332
:102340008F5F6DCF85EEA9CF8091F5019091F60159
:10235000A091F701B091F801892B8A2B8B2B09F4FE
:10236000A2CF0E94320C0091F5011091F60120914C
:10237000F7013091F8016C197D098E099F09061744
:1023800017072807390708F08ECFC4CF80E0C7CFE2
:1023900082E0C5CF83E0C3CFEF92FF920F931F93EC
:1023A000CF93DF937C01C62F80914203909143032A
:1023B000009709F459C02091460331E030937B0225
:1023C00020937A021092790210927802DC01ED914A
:1023D000FC910190F081E02D60E009958701EE24E9
:1023E000E394F12CD1E0C1508091420390914303DA
:1023F000CF3F91F1B0E2EB16F104D8F00E94E51066
:10240000809142039091430320914603D0937B0235
:1024100020937A021092790210927802DC01ED91F9
:10242000FC910190F081E02D60E00995EE24E394A9
:10243000F12C8091420390914303F8016491DC01F7
:10244000ED91FC910190F081E02D0995BFEFEB1A21
:10245000FB0A0F5F1F4FC7CFDF91CF911F910F91E5
:10246000FF90EF900C94E510E0915203F09153032C
:102470009081809158038095892380838701C15082
:1024800008F438C0F8018491209140033091410351
:10249000232B29F00E94EF0F0F5F1F4FF0CF28E092
:1024A00030E040E8E0914E03F0914F0390915603E5
:1024B000582F5423D9F05081952B9083E0915003ED
:1024C000F0915103908150915703952B9083E091A7
:1024D0005003F091510350819091570390959523AB
:1024E0009083469521503109E9F6D6CF50819095D9
:1024F0009523E3CFDF91CF911F910F91FF90EF9044
:1025000008951F93CF93DF93EC018D8D9E8D0097DF
:1025100021F1162F29A131E030937B0220937A021A
:102520001092790210927802DC01ED91FC910190F9
:10253000F081E02D60E009958D8D9E8DDC01ED919F
:10254000FC910190F081E02D612F09958D8D9E8D7C
:10255000DF91CF911F910C94E510ADA5BEA59C9184
:102560008BA9809589238C938B8D9C8D892B31F041
:10257000862FDF91CF911F910C94EF0F28E030E070
:1025800080E8A9A5BAA599A9462F4823C1F04C9186
:10259000942B9C93ABA5BCA59C914AA9942B9C938E
:1025A000ABA5BCA54C919AA9909594239C93869534
:1025B0002150310931F7DF91CF911F9108954C914E
:1025C00090959423E6CF1F93CF93DF93EC01162FC2
:1025D0008D8D9E8D892BB1F12DA93EA94FA958ADA6
:1025E00060E074E284EF90E00E94A11D2051310967
:1025F0004109510956954795379527952093B8007D
:1026000066EA111167EACE010E9481128D8D9E8DBE
:10261000892B41F129AD3AAD4BAD5CAD60E074E280
:1026200084EF90E00E94A11D205131094109510918
:1026300056954795379527952093B800DF91CF9110
:102640001F9108958B8D9C8D892B21F08EAD9FADB0
:102650000E94F60FEFA5F8A990818CA98095892397
:102660008083CECFEFA5F8A980819CA9892B808398
:10267000E5CFDC015196ED91FC91529790815096F7
:102680008C918095892380830895209166023091F2
:1026900067022817390781F49091640280916502DE
:1026A000981751F0E0916402F0E0EC58FE4F808101
:1026B000082E000C990B08958FEF9FEF089520913D
:1026C0006602309167022817390739F48FB7F894FA
:1026D00010926502109264028FBF089520916602E5
:1026E000309167022817390771F4809165022091B3
:1026F000640290E0805C9F4F821B910960E470E06F
:102700000E948D1D089590E080E00895209166025A
:102710003091670228173907B9F4909164028091CB
:102720006502981789F0E0916402F0E0EC58FE4FE2
:1027300080812091640230E02F5F3F4F2F73332759
:102740002093640290E008958FEF9FEF089520E0BA
:1027500001972FEF8F3F9207D9F7089590E080E01F
:102760000895DF92EF92FF920F931F93CF93DF9321
:10277000EC01898D9A8D892B71F481E090E09B8327
:102780008A8390E080E0DF91CF911F910F91FF90BD
:10279000EF90DF900895162FDFB6F8948B8D81FDB2
:1027A00029C0CE010E943913898D9A8D05960E9409
:1027B000A7138B8D98E0E92EF12C01E081FF28C052
:1027C000812F8023F1F0CE010E943913898D9A8DDB
:1027D0000E94A713000F81E0E81AF10889F7CE01E3
:1027E0000E943913DFBE898D9A8D0E94A71381E064
:1027F00090E0C9CFE989FA8980819889892B808303
:10280000D3CFE989FA8980819889892B8083DECFAB
:10281000812F8023B1F0E989FA8980819889892BF9
:102820008083898D9A8D0E94A713000F81E0E81A9A
:10283000F10871F7E989FA8980819889892B808369
:10284000D1CFCE010E943913ECCF0E94021F85ED3B
:102850008093BC008091F5019091F601A091F70161
:10286000B091F8010796A11DB11D23E0B695A7957B
:10287000979587952A95D1F72091BC0024FD03C038
:1028800010923E0208954091F5015091F601609139
:10289000F7017091F801452B462B472B69F3009700
:1028A000A105B10541F02AE22A95F1F700C0019790
:1028B000A109B109E1CF8091F4010C943F101F925E
:1028C0000F920FB60F9211242F933F938F939F93E4
:1028D000AF93BF938091700290917102A0917202A8
:1028E000B091730230916F0223E0230F2D3758F51A
:1028F0000196A11DB11D20936F02809370029093E9
:102900007102A0937202B09373028091740290914D
:102910007502A0917602B09177020196A11DB11DBA
:102920008093740290937502A0937602B09377021D
:10293000BF91AF919F918F913F912F910F900FBEBB
:102940000F901F90189526E8230F0296A11DB11D28
:10295000D2CF1F920F920FB60F9211242F933F9355
:102960004F935F936F937F938F939F93AF93BF9397
:10297000EF93FF938CE792E00E94090DFF91EF9196
:10298000BF91AF919F918F917F916F915F914F9187
:102990003F912F910F900FBE0F901F9018951F928F
:1029A0000F920FB60F9211242F938F939F93EF9353
:1029B000FF93E0918C02F0918D028081E091920270
:1029C000F091930282FD1BC09081809195028F5FF0
:1029D0008F7320919602821741F0E0919502F0E00A
:1029E000E458FD4F958F80939502FF91EF919F9151
:1029F0008F912F910F900FBE0F901F90189580818F
:102A0000F4CF1F920F920FB60F9211242F933F9382
:102A10004F935F936F937F938F939F93AF93BF93E6
:102A2000EF93FF938091B900887F803609F44AC004
:102A3000F0F5883209F4A7C018F5803109F49BC07D
:102A4000B8F4882309F4F9C0883009F494C0FF91E0
:102A5000EF91BF91AF919F918F917F916F915F9116
:102A60004F913F912F910F900FBE0F901F9018958F
:102A7000883109F488C0803251F780933D0214C038
:102A8000803409F49DC040F48033B9F38833F9F6FB
:102A900080933D0285ECB0C0803509F485C088354F
:102AA00009F496C0883499F60E942714D0CF88394B
:102AB00009F48CC038F5883729F050F4883611F0C5
:102AC000803729F683E080933E0210923C0257C083
:102AD000883809F47BC0803919F0803809F0B7CF05
:102AE00080913C02803208F071C0E0913C0281E0AC
:102AF0008E0F80933C028091BB00F0E0E45EFD4FBE
:102B000080833DC0803B39F0E0F4803A09F479C01D
:102B1000883A09F09CCF84E080933E0210921B0219
:102B200010921A02E0916B02F0916C02099580916B
:102B30001A0281110FC081E080931A021092FA01EB
:102B400009C0803C09F4A6CF883C09F4A3CF883B98
:102B500009F07DCFE0911B0281E08E0F80931B0274
:102B6000F0E0E650FE4F80818093BB0090911B0205
:102B700080911A0229C0809163028093BB0085EC8A
:102B80008093BC0064CF909162028091610298179B
:102B900058F5E091620281E08E0F80936202F0E0CE
:102BA000EF5BFD4F8081E9CFE091620281E08E0F03
:102BB000809362028091BB00F0E0EF5BFD4F808369
:102BC00090916202809161029817C8F285E8D8CF8F
:102BD000E091620281E08E0F809362028091BB00DF
:102BE000F0E0EF5BFD4F80838091400281115CCF6C
:102BF00081E080933F0284EA8093BC0010923E0201
:102C000026CF85EC8093BC0010923E0280913C025E
:102C1000803230F4E0913C02F0E0E45EFD4F10823F
:102C200060913C0270E0E0916902F0916A028CE1EF
:102C300092E0099510923C020ACF10923D0234CFE7
:102C40001F920F920FB60F921124EF92FF920F93E3
:102C50001F932F933F934F935F936F937F938F9324
:102C60009F93AF93BF93CF93DF93EF93FF93C09165
:102C70006602D0916702209749F0EE85FF859D8519
:102C80008B8D81FF1AC080818923D1F4FF91EF9150
:102C9000DF91CF91BF91AF919F918F917F916F9174
:102CA0005F914F913F912F911F910F91FF90EF9066
:102CB0000F900FBE0F901F9018958081892331F7D8
:102CC0008B899C890E94A71388E0E82EF12C10E0E4
:102CD00001E08D899E890E94A713EE85FF85808182
:102CE0009D85892339F1102B000F81E0E81AF10846
:102CF00081F78F89988D0E94A7138B8D81FD109588
:102D0000809165022091640290E001968F7399276B
:102D10002817190699F0E0916502F0E0EC58FE4F93
:102D200010838091650290E001968F7399278093BC
:102D30006502ACCF802F80951823D6CF8B8D816014
:102D40008B8FA4CF1F920F920FB60F9211242F9347
:102D50003F934F935F936F937F938F939F93AF9323
:102D6000BF93EF93FF930E942016FF91EF91BF91C5
:102D7000AF919F918F917F916F915F914F913F9113
:102D80002F910F900FBE0F901F9018951F920F92CA
:102D90000FB60F9211242F933F934F935F936F932E
:102DA0007F938F939F93AF93BF93EF93FF930E9473
:102DB0002016FF91EF91BF91AF919F918F917F91DD
:102DC0006F915F914F913F912F910F900FBE0F9098
:102DD0001F90189510927F0210927E0288EE93E069
:102DE000A0E0B0E08093800290938102A0938202E1
:102DF000B09383022AE031E030937D0220937C027D
:102E000025EC30E0309389022093880224EC30E0F6
:102E100030938B0220938A0220EC30E030938D02B5
:102E200020938C0221EC30E030938F0220938E02AD
:102E300022EC30E0309391022093900226EC30E0B7
:102E40003093930220939202109295021092960270
:102E5000109297021092980210921C0310921B037A
:102E600080931D0390931E03A0931F03B093200330
:102E70002CE131E030931A032093190310927E0362
:102E800010927D0380937F0390938003A09381032E
:102E9000B09382038AE591E090937C0380937B0357
:102EA00010928F0310928E03109291031092900350
:102EB0001092930310929203109295031092940330
:102EC000809196038E7F8D7F8093960361E080E0F2
:102ED0000E94010C61E080E00E94B50BE1E1FBE0A3
:102EE000E491E0938B03EDEFFAE0E491F0E0EE0F74
:102EF000FF1FED50F54F8591949190938D03809332
:102F00008C0360E08AE00E94010C8091960381FDB1
:102F100004C061E08AE00E94B50B8AE080938703D9
:102F2000EBE1FBE0E491E0938803E7E0FBE0E49170
:102F3000F0E0EE0FFF1FE751F54F859194919093CC
:102F40008A03809389031092660310926D03109296
:102F5000740310927503109276031092770381E048
:102F600080937303809370031092710392E09093A7
:102F70007203809365038EE190E090936A038093DF
:102F800069030E94DD1D90936F0380936E03009789
:102F900009F4A6C02EE1FC0111922A95E9F78AE016
:102FA00090E090936803809367038DE090E09093A6
:102FB0006C0380936B0380916603882341F061E08A
:102FC0008DE00E94010C60E08DE00E94B50BEAE00C
:102FD000FBE0E491F0E0EE0FFF1FED50F54F85911F
:102FE00094919093790380937803EEE1FBE0E49170
:102FF000E0937A03109228031092270320E830E030
:1030000030932A032093290380E490E090932C03CB
:1030100080932B0330932E0320932D039093300342
:1030200080932F0310923B031092320310923103CE
:10303000109234031092330381E080933A0380931B
:1030400039032FEF3FEF309338032093370330934A
:1030500036032093350380933C0310923D03109276
:103060003F0310923E038EE291E0909326038093FB
:103070002503109241031092400389E193E090935D
:1030800043038093420310924503109244038FEF51
:103090008093490380934A0380934B0380934C03AE
:1030A00080934D0380E89AE1A6E0B0E080935A0354
:1030B00090935B03A0935C03B0935D0380EA96E872
:1030C000A1E0B0E080935E0390935F03A093600360
:1030D000B093610380E580936303109264030895C5
:1030E00010926A03109269031092680310926703AA
:1030F0005CCF789484B5826084BD84B5816084BDE2
:1031000085B5826085BD85B5816085BD80916E0085
:10311000816080936E0010928100809181008260B6
:1031200080938100809181008160809381008091F3
:1031300080008160809380008091B10084608093E2
:10314000B1008091B00081608093B00080917A00DE
:10315000846080937A0080917A00826080937A0004
:1031600080917A00816080937A0080917A008068F3
:1031700080937A001092C10060E082E00E94010C0E
:1031800060E083E00E94010C10929503109294037A
:103190001092930310929203109291031092900355
:1031A00010928F0310928E0390E080E0FC01E858AB
:1031B000FF4F459155916591749140385542610595
:1031C000710509F006C1FC01E458FF4F25913491C7
:1031D00030938F0320938E03FC01E258FF4F25911B
:1031E00034913093910320939003FC01E058FF4FFA
:1031F000259134913093930320939203FC01EE5771
:10320000FF4F8591949190939503809394038091BF
:10321000920390919303892BB1F19091870396319A
:1032200060F52091680084E0983048F031E09E30ED
:1032300008F430E081E001C0880F3A95EAF7822B6C
:1032400080936800EDE6F0E0983050F0EBE6F0E0B7
:103250009E3030F0ECE6F0E0963110F0F0E0E0E087
:103260004081292F30E0983008F0B9C081E001C0DA
:10327000880F9A95EAF7842B80838091940390912C
:1032800095030E94A71380916602909167028B5765
:10329000934091F0809196038E7F809396038FB731
:1032A000F89410926502109264022BE733E0309399
:1032B0006702209366028FBFE0918C02F0918D022D
:1032C00082E08083E0918802F09189021082E0918F
:1032D0008A02F0918B028FEC808310929402E0912D
:1032E0009002F091910286E08083E0918E02F0914D
:1032F0008F02808180618083E0918E02F0918F0245
:10330000808188608083E0918E02F0918F028081BD
:1033100080688083E0918E02F0918F0280818F7DA2
:10332000808380916B0390916C0397FD08C061E0EE
:103330000E94010C60E080916B030E94B50B81E05C
:103340008093660320912B0330912C03C9010796CB
:1033500097FD0796B3E095958795BA95E1F720918B
:10336000290330912A03829FE001839FD00D929F11
:10337000D00D11248091440390914503892BE1F1F4
:10338000AE0170E060E080914403909145030E949B
:10339000071F20912B0330912C03809129039091DA
:1033A0002A03213231050CF0E7C0B90160527109DE
:1033B00077FF02C06F5F7F4F7595679583579109BF
:1033C00097FD019600E210E023E730E046E251E08D
:1033D000E6C00C968C39910509F0E8CE18CF9E30E6
:1033E00040F42850310981E001C0880F2A95EAF79E
:1033F00042CF2E503109F7CFCE010E94DD1D9093B0
:10340000450380934403892B09F0BACF47E050E08D
:1034100068E671E08CE792E00E948B0C42E050E09D
:1034200060E771E08CE792E00E948B0C812C74E2E3
:10343000972E74EFA72EB12CE0E0CE2EE0E0DE2E2A
:10344000772473948091420390914303892B09F46C
:1034500089C220915A0330915B0340915C035091E3
:103460005D03C501B4010E94A11D2051310941092C
:10347000510956954795379527952093B80065E0F3
:1034800086EC95E00E94CC1160912903615085E2A1
:1034900093E00E94811220912B0330912C03C901EB
:1034A000079697FD079633E0959587953A95E1F74E
:1034B0002091290330912A03829F8001839F100D60
:1034C000929F100D1124C0914403D0914503809127
:1034D0004203909143030C0F1D1F009709F484C20F
:1034E0002091460370927B0220937A021092790217
:1034F00010927802DC01ED91FC910190F081E02DB9
:1035000060E40995EE24E394F12C809142039091BC
:1035100043030C171D0709F43CC2B0E2EB16F1049B
:10352000D8F00E94E51080914203909143032091CE
:10353000460370927B0220937A02109279021092D5
:103540007802DC01ED91FC910190F081E02D60E4C6
:103550000995EE24E394F12C80914203909143036A
:103560006991DC01ED91FC910190F081E02D0995CC
:10357000BFEFEB1AFB0AC9CFB9016054710977FF9D
:1035800002C06F5F7F4F759567958255910997FDD2
:10359000019600E410E022E530E046E053E0959526
:1035A00087950E94A70A82E0809347038091420397
:1035B00090914303892B09F4DFC08CE38093460389
:1035C00010926E0210926D0210927902109278029F
:1035D0000E94211089E89CE090936C0280936B021A
:1035E0008AE89CE090936A028093690280914D037F
:1035F00087FD1EC061E00E94010C61E080914D03D7
:103600000E94B50B61E070E080E090E00E94570CF2
:1036100060E080914D030E94B50B6AE070E080E0AD
:1036200090E00E94570C61E080914D030E94B50B21
:103630008091420390914303892B09F45CC120914E
:103640005A0330915B0340915C0350915D0360E04D
:1036500074E284EF90E00E94A11D205131094109DC
:10366000510956954795379527952093B80064E002
:1036700082E291E00E94CC1160912B03615085E2BF
:1036800093E00E94811264E08EE191E00E94CC11EF
:103690008091470360E1813009F064E185E293E0C5
:1036A0000E94811264E08AE191E00E94CC118FE8CF
:1036B000809362038091290390912A0380389105B9
:1036C00009F032C180912B0390912C038034910535
:1036D00009F03AC180914703813009F023C18FE995
:1036E00080936203C2E16AED85E293E00E94811259
:1036F0006C2F85E293E00E94811261E885E293E0FD
:103700000E9481126091620385E293E00E9481121F
:1037100069ED85E293E00E9481128091470362E2A5
:10372000813009F061EF85E293E00E94811266E04A
:1037300084E191E00E94CC11809142039091430377
:10374000892B09F405C120915E0330915F034091FC
:1037500060035091610360E074E284EF90E00E94A6
:10376000A11D2051310941095109569547953795B9
:1037700027952093B8004ACE61E080914B030E94C8
:10378000010C61E080914C030E94010C80914B037D
:10379000082E000C990BFC01E350F54FE491F0E08A
:1037A000EE0FFF1FED50F54F2591349130935303E9
:1037B00020935203FC01EF5EF44FE491E093580331
:1037C00080914C03082E000C990BFC01E350F54F3F
:1037D000E491F0E0EE0FFF1FED50F54FA591B4918D
:1037E000B0935503A0935403FC01EF5EF44FE491B2
:1037F000E09359038C91E82BEC93809140039091D6
:103800004103892B09F434C0CFB7F8948091680242
:10381000811127C0E7E0FBE08491EBE1FBE09491AC
:10382000E82FF0E0EE0FFF1FE553FA4FA591B4919A
:10383000EC91E92321F461E08AE00E94B50B61E09C
:103840008AE00E94010C8CB580618CBD8CB58064CF
:103850008CBD61E08DE00E94010C61E08BE00E9474
:10386000010C809168028F5F80936802CFBFBECE4B
:1038700061E0809149030E94010C61E080914A035C
:103880000E94010C80914903082E000C990BFC0149
:10389000E350F54FE491F0E0EE0FFF1FED50F54FD0
:1038A0002591349130934F0320934E03FC01EF5E3A
:1038B000F44FE491E093560380914A03082E000CE4
:1038C000990BFC01E350F54FE491F0E0EE0FFF1F80
:1038D000ED50F54FA591B491B0935103A0935003CF
:1038E000FC01EF5EF44FE491E09357038C91E09577
:1038F000E823EC937BCE8091400390914103892B88
:1039000031F080916303909164030E94F60FE0917F
:103910005403F09155039081809159038095892338
:103920008083A5CE8FECDCCE8036910569F4809142
:103930002B0390912C03409739F4809147038130F9
:1039400029F480E180936203C2E0CDCE8FEAFACF02
:10395000E0915403F0915503808190915903892B94
:10396000808354CD8091400390914103892B31F0A5
:1039700080916303909164030E94F60FE0915403D9
:10398000F09155039081809159038095892380831C
:1039900076CD0E94E5108091420390914303892BDC
:1039A00009F463C020915E0330915F03409160038E
:1039B00050916103C501B4010E94A11D205131093C
:1039C0004109510956954795379527952093B80099
:1039D000C114D10409F436CD0E94F50C882309F4F2
:1039E00031CD0E9400002ECDE0915203F09153039F
:1039F000808190915803892B80830C171D0759F201
:103A000089912091400330914103232B19F00E94AA
:103A1000EF0FF3CF28E030E040E8E0914E03F09163
:103A20004F0390915603542F5823D9F05081952B72
:103A30009083E0915003F09151039081509157038E
:103A4000952B9083E0915003F09151035081909118
:103A50005703909595239083469521503109E9F6B7
:103A6000CCCF508190959523E3CFE0915403F09112
:103A70005503808190915903892B8083A9CF8EE2D1
:103A800091E09093260380932503809144039091C5
:103A90004503009711F00E94791E80916E0390916A
:103AA0006F030E94791E80916B0390916C0397FDC8
:103AB00003C060E00E94010C8AE591E090937C03D2
:103AC00080937B03209187032631C0F4EDE6F0E07C
:103AD000283030F0EBE6F0E02E3010F0ECE6F0E0CD
:103AE0003081422F50E0283050F481E090E001C056
:103AF000880F2A95EAF780958323808308952E30D6
:103B000048F44850510981E090E001C0880F4A957F
:103B1000EAF7F1CF4E505109F6CF97FB072E16F476
:103B2000009407D077FD09D00E94C31D07FC05D083
:103B30003EF4909581959F4F0895709561957F4FC4
:103B40000895A1E21A2EAA1BBB1BFD010DC0AA1FDE
:103B5000BB1FEE1FFF1FA217B307E407F50720F0F6
:103B6000A21BB30BE40BF50B661F771F881F991F71
:103B70001A9469F760957095809590959B01AC01BA
:103B8000BD01CF010895AA1BBB1B51E107C0AA1FAD
:103B9000BB1FA617B70710F0A61BB70B881F991FEE
:103BA0005A95A9F780959095BC01CD010895EE0F27
:103BB000FF1F0590F491E02D09940F931F93CF936D
:103BC000DF938230910510F482E090E0E091990358
:103BD000F0919A0330E020E0B0E0A0E0309799F453
:103BE0002115310509F44AC0281B390B2430310551
:103BF000D8F58A819B816115710589F1FB01938359
:103C00008283FE0111C040815181028113814817D6
:103C10005907E0F04817590799F4109761F0129688
:103C20000C93129713961C933296CF01DF91CF918C
:103C30001F910F9108950093990310939A03F4CF65
:103C40002115310551F04217530738F0A901DB0166
:103C50009A01BD01DF01F801C1CFEF01F9CF9093C7
:103C60009A0380939903CDCFFE01E20FF31F819356
:103C700091932250310939832883D7CF209197031C
:103C800030919803232B41F42091020130910301DC
:103C90003093980320939703209100013091010104
:103CA0002115310541F42DB73EB7409104015091E3
:103CB0000501241B350BE0919703F0919803E2175F
:103CC000F307A0F42E1B3F0B2817390778F0AC013F
:103CD0004E5F5F4F2417350748F04E0F5F1F50931C
:103CE000980340939703819391939FCFF0E0E0E096
:103CF0009CCFCF93DF930097E9F0FC0132971382BA
:103D00001282A0919903B0919A03ED0130E020E076
:103D10001097A1F420813181820F931F2091970386
:103D2000309198032817390709F061C0F093980380
:103D3000E0939703DF91CF910895EA01CE17DF0753
:103D4000E8F54A815B819E0141155105B1F7E90112
:103D5000FB83EA8349915991C40FD51FEC17FD07E6
:103D600061F4808191810296840F951FE901998306
:103D70008883828193819B838A83F0E0E0E01296BE
:103D80008D919C9113970097B9F52D913C911197C6
:103D9000CD010296820F931F2091970330919803D3
:103DA0002817390739F6309751F510929A03109277
:103DB0009903B0939803A0939703BCCFD383C28396
:103DC00040815181840F951FC817D90761F44E5F58
:103DD0005F4F88819981480F591F518340838A81A1
:103DE0009B81938382832115310509F0B0CFF09335
:103DF0009A03E09399039ECFFD01DC01C0CF1382AB
:103E00001282D7CF81E090E0F8940C940E1FDC0171
:103E100001C06D9341505040E0F7089515E0C4E9AA
:103E2000D5E004C0FE010E94D71D2196C539D107F7
:063E3000C9F7F894FFCF72
:103E360000009B038000000000002B0D8B0CB80CCB
:103E4600780DE90CC70CDB0C00000000B6108910D9
:103E5600AE13BF0582106F10601000000000FB0754
:103E66008B0CAE13F90F3F0FBF05A00A780A940A10
:103E7600880A080BBF05C105E312AF0EF80EC1098B
:103E8600A4092C09CD0800000000B1138B0CAE1359
:103E96005F136E1386134513537461727465640061
:043EA6000D0A000001
:00000001FF
